:03000000020006F5
:03005F0002000399
:0300030002006296
:1A0062001200C77582801200DF7508CF750901750A8075820012015180FEA0
:1101CF004661697A2041696E757220526F6669710055
:1D007C00D2B690000A120099C2B62230B2FDA28C30B203308DFAA28CE58CE58A2227
:20009900AE82AF83EE4F60071EBEFF011F80F522AE82AF83EE4F6015900070C007C00612FC
:0E00B9000099D006D0071EBEFF011F80E7226F
:2000C7007582021200DF7582281200DF75820E1200DF7582010200DFAF825307F08FA0C2E4
:2000E70090C291D2929003E8C007120099C292902710120099D0078FA0C290C291D2929060
:2001070003E8120099C29290271012009990000022AF825307F08FA0D290C291D292900374
:20012700E8C007120099C292902710120099D0078FA0D290C291D2929003E8120099C292FF
:2001470090271012009990000022E582FF24FC402CEF2F90015E738006800C801280187551
:2001670082801200DF80167582C01200DF800E7582901200DF80067582D01200DFAD08AEA0
:2001870009AF0A8D828E838FF01201AFFC60188C820DBD00010EC007C006C005120118D08D
:0801A70005D006D00780DC2220
:06003500E478FFF6D8FD9F
:200013007900E94400601B7A009001E0780175A000E493F2A308B8000205A0D9F4DAF275B2
:02003300A0FF2C
:20003B007800E84400600A790175A000E4F309D8FC7800E84400600C7900900001E4F0A3C3
:04005B00D8FCD9FAFA
:0D00060075810A1201CBE582600302000340
:1C01AF0020F71430F6148883A88220F507E6A88375830022E280F7E49322E0225F
:0401CB007582002217
:00000001FF
