:03000000020006F5
:03005F0002000399
:0300030002006296
:2000620012007E902580E4F5F01201D6120219AF82BF3004C28080F4D28080F0C28075A0E7
:0200820000225A
:20008400AE82AF83EE4F60071EBEFF011F80F522AE82AF83EE4F6015900070C007C0061211
:0E00A4000084D006D0071EBEFF011F80E72299
:2000B2007582021200CA7582281200CA75820E1200CA7582010200CAAF8274F05FF5A0C26E
:2000D200A0C2A1D2A29003E8C007120084C2A2902710120084D007EFC454F0FF74F05FF579
:2000F200A0C2A0C2A1D2A29003E8120084C2A290271012008490000022AF8274F05FF5A008
:20011200D2A0C2A1D2A29003E8C007120084C2A2902710120084D007EFC454F0FF74F05F5B
:20013200F5A0D2A0C2A1D2A29003E8120084C2A290271012008490000022E582FF24FC4085
:200152002CEF2F900159738006800C801280187582801200CA80167582C01200CA800E752B
:2001720082901200CA80067582D01200CAAD0AAE0BAF0C8D828E838FF0120548FC60188C2D
:20019200820DBD00010EC007C006C00512010BD005D006D00780DC22AF82753110753200F4
:2001B200753340850F34753500850D82850E83C007120352D007750A10750B00750C408F45
:0401D2008202014C58
:2001D600AC82AD83AEF0FF438920759850D28EBC800DBD250ABE0007BF0004758DFD22BCCB
:2001F600C00DBD120ABE0007BF0004758DFA22BC600DBD090ABE0007BF0004758DF422758F
:200216008DE8223098FD859982C2982285829910990280FB22AD82AE83AFF08D828E838FBA
:20023600F0120548FC60188C820DBD00010EC007C006C005120222D005D006D00780DC2276
:20025600AD82AE83AFF07C00C007C006C005C004120219AB82C003120222D003D004D00528
:20027600D006D007BB0D028008BB0A028003EB7014EC2DF8E43EF98F02888289838AF0E47F
:200296001204AA801EBB0806EC60031C80BAEC2DF8E43EF98F02888289838AF0EB1204AA84
:0602B6000C80A58C8222E1
:1D02BC00D2B690000A120084C2B62230B2FDA28C30B203308DFAA28CE58CE58A22FA
:2002D900AD82AE83AFF0AB3CAC3DA93AAA3BC3E99BEA64808CF063F08095F05055EB2DF5D3
:2002F90041EC3EF5428F431BBBFF011CE92DF53EEA3EF53F8F4009B900010A853E82853F35
:20031900838540F0120548F5448541828542838543F0120548F8853E82853F838540F01200
:2003390004AA8541828542838543F0E5441204AA809C8D828E838FF022858236858337C3A7
:20035900E5349402E5356480948040107420953474808535F063F08095F0500A8531828509
:2003790032838533F0228536828537831204C5AC82AD837A007B00EC4D70030204298534A7
:200399003A85353B8C828D83C005C004C003C002120564858238858339D002D003D004D0A5
:2003B90005C3E538940AE5396480948040248A068B070ABA00010BEE2531FEEF3532F9AFF5
:2003D90033A838743728F88E8289838FF01204AA80228A068B070ABA00010BEE2531FEEF06
:2003F9003532F9AF33A838743028F88E8289838FF01204AA85343A85353B8C828D83C003DA
:20041900C00212059AAC82AD83D002D003020390EA4B701E8A068B070ABA00010BEE2531BF
:20043900FEEF3532FFAD338E828F838DF074301204AAE53730E72B740AB53406E4B53502D2
:200459008002801E8A068B070ABA00010BEE2531FEEF3532FFAD338E828F838DF0742D12A8
:2004790004AAEA2531FDEB3532FEAF338D828E838FF0E41204AAEA24FFF53CEB34FFF53D75
:11049900E4F53AF53B8531828532838533F00202D918
:06003500E478FFF6D8FD9F
:200013007900E94400601B7A009005D6780175A000E493F2A308B8000205A0D9F4DAF275B8
:02003300A0FF2C
:1B04AA0020F71130F6138883A88220F509F6A8837583002280FEF280F5F02251
:0D04C500E58330E7076382FF6383FFA32216
:2004D200E53A453B60467A01E53A25E0F53AE53B334012F53BE582953AE583953B40030A67
:2004F20080E6C3E53B13F53BE53A13F53AC3E582953AF5F0E583953B4005F58385F082C370
:0D051200E53B13F53BE53A13F53ADAE1223B
:20051F007A10E4FBFCE58225E0F582E58333F583EB33FBEC33FCEB953AF5F0EC953B40068C
:09053F00FCABF0438201DADD227D
:20003B007800E84400600A790175A000E4F309D8FC7800E84400600C7900900001E4F0A3C3
:04005B00D8FCD9FAFA
:0D0006007581441205D2E5826003020003FB
:1C05480020F71430F6148883A88220F507E6A88375830022E280F7E49322E022C2
:20056400C2D5E58330E70DD2D5E4C39582F582E49583F583E53B30E70BE4C3953AF53AE439
:16058400953BF53B1204D230D50BE4C39582F582E49583F583229E
:20059A00C2D5E58330E70DD2D5E4C39582F582E49583F583E53B30E70DB2D5E4C3953AF598
:1805BA003AE4953BF53B12051F30D50BE4C39582F582E49583F58322FA
:0405D200758200220C
:00000001FF
