:03000000020006F5
:03005F0002000399
:0300030002006296
:200062001200B212010D7582801201251200B89003E81200EF1209C6850882850983120B87
:20008200541209D1758201120125750A83750B0C750C807582001201A785080D85090E7503
:2000A2000F0A7582011202059001F41200EF80C5C28075A00022750A8F750B0C750C8075C0
:1D00C20082001201A7750AA0750B0C750C807582010201A7208003D28022C280221C
:200C830044697374616E6365203A20004661697A2041696E757220526F666971004A7572B1
:070CA3006E616C2049540052
:2000DF00AE82AF83EE4F60071EBEFF011F80F522AE82AF83EE4F6015900070C007C00612B6
:0E00FF0000DFD006D0071EBEFF011F80E722E3
:20010D0075820212012575822812012575820E120125758201020125AF8274F05FF5A0C2A2
:20012D00A0C2A1D2A29003E8C0071200DFC2A29027101200DFD007EFC454F0FF74F05FF567
:20014D00A0C2A0C2A1D2A29003E81200DFC2A29027101200DF90000022AF8274F05FF5A0F6
:20016D00D2A0C2A1D2A29003E8C0071200DFC2A29027101200DFD007EFC454F0FF74F05F4A
:20018D00F5A0D2A0C2A1D2A29003E81200DFC2A29027101200DF90000022E582FF24FC4074
:2001AD002CEF2F9001B4738006800C8012801875828012012580167582C0120125800E75BD
:2001CD00829012012580067582D0120125AD0AAE0BAF0C8D828E838FF0120B60FC60188CFC
:2001ED00820DBD00010EC007C006C005120166D005D006D00780DC22AF827531107532003E
:20020D00753340850F34753500850D82850E83C0071202D6D007750A10750B00750C408F66
:20022D00820201A7AD82AE83AFF0120B60FCA94DAA4EAB4F89828A838BF0120B608D828E78
:20024D00838FF0120A4889828A838BF0EC020A48AD82AE83AFF0AB4FAC50A94DAA4EC3E9C9
:20026D009BEA64808CF063F08095F05055EB2DF554EC3EF5558F561BBBFF011CE92DF55187
:20028D00EA3EF5528F5309B900010A8551828552838553F0120B60F55785548285558385B3
:2002AD0056F0120B60F88551828552838553F0120A488554828555838556F0E557120A4875
:2002CD00809C8D828E838FF022858236858337C3E5349402E5356480948040107420953487
:2002ED0074808535F063F08095F0500A8531828532838533F022853682853783120A63ACBE
:20030D0082AD837A007B00EC4D70030203AD85344D85354E8C828D83C005C004C003C00291
:20032D00120B7C858238858339D002D003D004D005C3E538940AE5396480948040248A06C1
:20034D008B070ABA00010BEE2531FEEF3532F9AF33A838743728F88E8289838FF0120A4811
:20036D0080228A068B070ABA00010BEE2531FEEF3532F9AF33A838743028F88E8289838F1A
:20038D00F0120A4885344D85354E8C828D83C003C002120BC5AC82AD83D002D0030203144D
:2003AD00EA4B701E8A068B070ABA00010BEE2531FEEF3532FFAD338E828F838DF0743012AF
:2003CD000A48E53730E72B740AB53406E4B535028002801E8A068B070ABA00010BEE2531CD
:2003ED00FEEF3532FFAD338E828F838DF0742D120A48EA2531FDEB3532FEAF338D828E838A
:20040D008FF0E4120A48EA24FFF54FEB34FFF550E4F54DF54E8531828532838533F00202CD
:01042D005D71
:20042E00AC82AD83AEF0FF438920759850D28E8C828D838EF0EF020447AC82AD83AEF0FF37
:20044E00C3EC9460ED9409EE9400EF9400403EE49C74C29D74019EE49F40328C4D8D4E8E41
:20046E004F8F50900180E4F5F0120A7085824D85834E85F04FF55090C00075F0A8E41209CB
:20048E00E3AC82AD83AEF0C3E49CFF80027F5D8F8D2210980280FB85998222858299109961
:2004AE000280FB22AD82AE83AFF08D828E838FF0120B60FC60188C820DBD00010EC007C092
:2004CE0006C0051204A9D005D006D00780DC22AD82AE83AFF07C00C007C006C005C00412E1
:2004EE0004A0AB82C0031204A9D003D004D005D006D007BB0D028003BB0A14EC2DF8E43E19
:20050E00F98F02888289838AF0E4120A48801EBB0806EC60031C80BFEC2DF8E43EF98F029D
:20052E00888289838AF0EB120A480C80AA8C822285823F7402B53F4BE53E700122E53E1480
:20054E00FE8EF005F07C017D008006EC2CFCED33FDD5F0F7ED3395E0FBFAE53A5204E53B90
:20056E005205E53C5203E53D5202EC4D4B4AB40100B3E4332430F582C0061204A9D0068E29
:20058E003E80B5E53A453B453C453D701BFEC3EE953E400122BE0A00400122758230C006B0
:2005AE001204A9D0060E80E674FFB53E0474018001E4F54BC3740A953EE433FD754000C300
:2005CE00E540953E5066E53A453B453C453D604AC005E5402441F9853F4D754E00754F0033
:2005EE00755000853A82853B83853CF0E53DC005C0011209E3AA82AB83ACF0FFD001D005B2
:20060E008A05853FF0EDA4FDE53AFEC39DF78A3A8B3B8C3C8F3DD005800EE54B700EED70FB
:20062E000BE5402441F8760005408093AF40EF60308F06EE142441F9E724F6500DEE14246A
:20064E0041F9870574372DFD800BEE142441F9870674302EFD8D82C0071204A9D0071F809F
:20066E00CD22C04CE581F54C2405F581E54C24FBFFE54C2405F8A607E54C24FBF8A94C0997
:20068E0009E6F70809E6F70809E6F7A84C080886820886830886F0120B60FB70030209C039
:2006AE00BB250280030209AEA84C080806B600020806A84C080886820886830886F0120B86
:2006CE0060FBBB30004046EB24C64041A84C087600A84C08088602088607088606BB3000D8
:2006EE004032EB24C6402DA84C08E675F00AA4FD8B04EC24D02DFDA84C08A6050ABA000141
:20070E000F8A828F838EF0120B60FB80D0A84C0876FF800CA84C0808A60208A60708A60646
:20072E00BB25030209A6BB420302093FBB43028049BB44030207ECBB46030209B3BB53033A
:20074E0002097FBB5503020879BB58030208D7BB6203020905BB63028020BB64028034BBF4
:20076E0066030209B3BB730302097FBB7503020849BB78030208A70209B3E54C2405F8E626
:20078E0014F9E54C2405F8A60187078F821204A90209B3E54C2405F8E624FEFFE54C240576
:2007AE00F8A6078F01870609870719EF30E715C3E49EFEE49FFF75822DC007C0061204A969
:2007CE00D006D0078E3AEFF53B3395E0F53CF53DA84C08863E75820A12053E0209B3E54C67
:2007EE002405F8E624FCFFE54C2405F8A6078F018704098705098706098707191919EF307F
:20080E00E723C3E49CFCE49DFDE49EFEE49FFF75822DC007C006C005C0041204A9D004D064
:20082E0005D006D0078C3A8D3B8E3C8F3DA84C08863E75820A12053E0209B3E54C2405F8AE
:20084E00E624FEFFE54C2405F8A6078F018706098707198E3A8F3B753C00753D00A84C08C6
:20086E00863E75820A12053E0209B3E54C2405F8E624FCFFE54C2405F8A6078F01873A09E2
:20088E00873B09873C09873D191919A84C08863E75820A12053E0209B3E54C2405F8E62474
:2008AE00FEFFE54C2405F8A6078F018706098707198E3A8F3B753C00753D00A84C08863EAC
:2008CE0075821012053E0209B3E54C2405F8E624FCFFE54C2405F8A6078F01873A09873B7E
:2008EE0009873C09873D191919A84C08863E75821012053E0209B3E54C2405F8E624FEFFD3
:20090E00E54C2405F8A6078F01870609870719A84C08B6FF05A84C0876108E3A8F3B753C82
:20092E0000753D00A84C08863E75820212053E8074E54C2405F8E624FCFFE54C2405F8A6A6
:20094E00078F018704098705098706098707191919A84C08B6FF05A84C0876208C3A8D3B84
:20096E008E3C8F3DA84C08863E75820212053E8034E54C2405F8E624FDFFE54C2405F8A6C1
:20098E00078F01870509870609870719198D828E838FF01204B2800D7582251204A9800573
:1809AE008B821204A9A84C080806B600020806020699854C81D04C2264
:1D09C600D2B690000A1200DFC2B62230B2FDA28C30B203308DFAA28CE58CE58A228E
:2009E300FB7A20E4FCFDFEFFE5822582F582E58333F583E5F033F5F0EB33FB4017DAE9804D
:200A030042E5822582F582E58333F583E5F033F5F0EB33FBEC33FCED33FDEE33FEEF33FF7B
:200A2300EC954DED954EEE954FEF95504013EC954DFCED954EFDEE954FFEEF9550FF43821D
:050A430001DABEEB2208
:06003500E478FFF6D8FD9F
:200013007900E94400601B7A00900CAA780175A000E493F2A308B8000205A0D9F4DAF275DD
:02003300A0FF2C
:1B0A480020F71130F6138883A88220F509F6A8837583002280FEF280F5F022AD
:0D0A6300E58330E7076382FF6383FFA32272
:200A7000AAF0FBE582854DF0A4FCADF0E583854DF0A42DFDE435F0FEE582854EF0A42DFD74
:200A9000E5F03EFEE433FFEA854DF0A42EFEE5F03FFFE583854EF0A42EFEE5F03FFFE5821B
:200AB000854FF0A42EFEE5F03FFFEB854DF0A42FFFEA854EF0A42FFFE583854FF0A42FFF83
:0E0AD000E5828550F0A42F8EF08D838C82225B
:200ADE00E54D454E60467A01E54D25E0F54DE54E334012F54EE582954DE583954E40030ABD
:200AFE0080E6C3E54E13F54EE54D13F54DC3E582954DF5F0E583954E4005F58385F082C3EC
:0D0B1E00E54E13F54EE54D13F54DDAE122DD
:200B2B007A10E4FBFCE58225E0F582E58333F583EB33FBEC33FCEB954DF5F0EC954E400654
:090B4B00FCABF0438201DADD226B
:20003B007800E84400600A790175A000E4F309D8FC7800E84400600C7900900001E4F0A3C3
:04005B00D8FCD9FAFA
:0C0B5400E4AC83AB82FAF9748E020BBB98
:0D000600758157120C30E582600302000383
:1C0B600020F71430F6148883A88220F507E6A88375830022E280F7E49322E022A4
:200B7C00C2D5E58330E70DD2D5E4C39582F582E49583F583E54E30E70BE4C3954DF54DE4E2
:160B9C00954EF54E120ADE30D50BE4C39582F582E49583F5832248
:130BB200FCABF0AA83A982749EC2D1F582120BFD020C34C9
:200BC500C2D5E58330E70DD2D5E4C39582F582E49583F583E54E30E70DB2D5E4C3954DF541
:180BE5004DE4954EF54E120B2B30D50BE4C39582F582E49583F583227E
:200BFD007804EC7011E58224F8500AF582E4C9CACBFCD8EF22EC7820058220E713D58201F7
:130C1D0022C3E933F9EA33FAEB33FBEC33FCD8EA15822204
:040C300075820022A7
:200C3400B98003EA13B34010EA2401FAE43BFBE43CFC50047C800582BC000EBB000BBA0004
:200C540008E4F5F0F583F58222A2D1E582138CF092F78B838A8222E4F583F58275F080F4C4
:0F0C7400A2D11322E4F583F58275F0C0747F22BC
:00000001FF
