:03000000020006F5
:03005F0002000399
:0300030002006296
:200062001200B9902580E4F5F012023812011475828012012C1200BF9003E81200F6758241
:200082000112012C751A38751B06751C807582001201AE90000A75F0401202B8740A6013FC
:2000A200751A0A751B00751C407582011201AED28080E0C28080DCC28075A00022751A44EF
:2000C200751B06751C807582001201AE751A55751B06751C807582010201AE208003D28096
:0400E20022C2802294
:200638005265636569766564203A20004661697A2041696E757220526F666971004A757206
:070658006E616C20495400A3
:2000E600AE82AF83EE4F60071EBEFF011F80F522AE82AF83EE4F6015900070C007C00612AF
:0E01060000E6D006D0071EBEFF011F80E722D4
:2001140075820212012C75822812012C75820E12012C75820102012CAF8274F05FF5A0C27F
:20013400A0C2A1D2A290000AC0071200E6C2A29000C81200E6D007EFC454F0FF74F05FF5A2
:20015400A0C2A0C2A1D2A290000A1200E6C2A29000C81200E690000022AF8274F05FF5A031
:20017400D2A0C2A1D2A290000AC0071200E6C2A29000C81200E6D007EFC454F0FF74F05F85
:20019400F5A0D2A0C2A1D2A290000A1200E6C2A29000C81200E690000022E582FF24FC40AF
:2001B4002CEF2F9001BB738006800C8012801875828012012C80167582C012012C800E75A1
:2001D400829012012C80067582D012012CAD1AAE1BAF1C8D828E838FF01205AAFC60188C73
:2001F400820DBD00010EC007C006C00512016DD005D006D00780DC22AF8275412075420000
:20021400754340851F44754500851D82851E83C0071203B4D007751A20751B00751C408FE0
:04023400820201AE93
:20023800AC82AD83AEF0FF438920759850D28EBC800DBD250ABE0007BF0004758DFD22BC68
:20025800C00DBD120ABE0007BF0004758DFA22BC600DBD090ABE0007BF0004758DF422752C
:200278008DE8223098FD859982C2982285829910990280FB22AD82AE83AFF08D828E838F58
:20029800F01205AAFC60188C820DBD00010EC007C006C005120284D005D006D00780DC2250
:2002B800AD82AE83AFF07C00C007C006C005C00412027BAB82C003120284D003D004D00502
:2002D800D006D007BB0D028008BB0A028003EB7014EC2DF8E43EF98F02888289838AF0E41D
:2002F80012050C801EBB0806EC60031C80BAEC2DF8E43EF98F02888289838AF0EB12050C5C
:060318000C80A58C82227E
:1D031E00D2B690000A1200E6C2B62230B2FDA28C30B203308DFAA28CE58CE58A2235
:20033B00AD82AE83AFF0AB4CAC4DA94AAA4BC3E99BEA64808CF063F08095F05055EB2DF530
:20035B0051EC3EF5528F531BBBFF011CE92DF54EEA3EF54F8F5009B900010A854E82854F52
:20037B00838550F01205AAF5548551828552838553F01205AAF8854E82854F838550F0125A
:20039B00050C8551828552838553F0E55412050C809C8D828E838FF022858246858347C31F
:2003BB00E5449402E5456480948040107420954474808545F063F08095F0500A8541828557
:2003DB0042838543F022854682854783120527AC82AD837A007B00EC4D700302048B854430
:2003FB004A85454B8C828D83C005C004C003C0021205C6858248858349D002D003D004D091
:20041B0005C3E548940AE5496480948040248A068B070ABA00010BEE2541FEEF3542F9AF52
:20043B0043A848743728F88E8289838FF012050C80228A068B070ABA00010BEE2541FEEF10
:20045B003542F9AF43A848743028F88E8289838FF012050C85444A85454B8C828D83C003A4
:20047B00C0021205FCAC82AD83D002D0030203F2EA4B701E8A068B070ABA00010BEE254189
:20049B00FEEF3542FFAD438E828F838DF0743012050CE54730E72B740AB54406E4B54502BD
:2004BB008002801E8A068B070ABA00010BEE2541FEEF3542FFAD438E828F838DF0742D1216
:2004DB00050CEA2541FDEB3542FEAF438D828E838FF0E412050CEA24FFF54CEB34FFF54DFD
:1104FB00E4F54AF54B8541828542838543F002033B03
:06003500E478FFF6D8FD9F
:200013007900E94400601B7A0090065F780175A000E493F2A308B8000205A0D9F4DAF2752E
:02003300A0FF2C
:1B050C0020F71130F6138883A88220F509F6A8837583002280FEF280F5F022EE
:0D052700E58330E7076382FF6383FFA322B3
:20053400E54A454B60467A01E54A25E0F54AE54B334012F54BE582954AE583954B40030A84
:2005540080E6C3E54B13F54BE54A13F54AC3E582954AF5F0E583954B4005F58385F082C3AD
:0D057400E54B13F54BE54A13F54ADAE12299
:200581007A10E4FBFCE58225E0F582E58333F583EB33FBEC33FCEB954AF5F0EC954B40060A
:0905A100FCABF0438201DADD221B
:20003B007800E84400600A790175A000E4F309D8FC7800E84400600C7900900001E4F0A3C3
:04005B00D8FCD9FAFA
:0D000600758154120634E582600302000388
:1C05AA0020F71430F6148883A88220F507E6A88375830022E280F7E49322E02260
:2005C600C2D5E58330E70DD2D5E4C39582F582E49583F583E54B30E70BE4C3954AF54AE4A7
:1605E600954BF54B12053430D50BE4C39582F582E49583F58322B9
:2005FC00C2D5E58330E70DD2D5E4C39582F582E49583F583E54B30E70DB2D5E4C3954AF516
:18061C004AE4954BF54B12058130D50BE4C39582F582E49583F5832205
:0406340075820022A9
:00000001FF
