:03000000020006F5
:18005F00750880750900750AC0750B00750C90750D00750ED0750F00E5
:03008F0002000369
:0300030002009266
:2000920075104675116175126975137A75142075154175166975176E751875751972751AB7
:2000B20020751B52751C6F751D66751E69751F71752000C28075A0007542027543017582DE
:2000D200011201441201597582801201817F00EF2410F9E7FE600C8E82C0071202A1D007F0
:2000F2000F80EC752CDC752D0A752E807582011203C1C2809001F4120126D2809001F41270
:04011200012680EE54
:0A0ADC004A75726E616C20495400E7
:20011600AE82AF83EE4F60071EBEFF011F80F522AE82AF83EE4F6015900070C007C006127E
:0E0136000116D006D0071EBEFF011F80E72273
:180077007521807522007523C07524007525907526007527D075280005
:20014400AF828F2985432A85422B90000022E54224FF920022758202120181AF2ABF0108F0
:200164007582281201818009EF700675823812018175820E120181758201020181AF82E5EC
:200184002BFE24FC50030201FFEE2E900193738006801D8034804B74F05FF580C280C281AB
:2001A400D2829003E8C007120116D007C282804F74F05FF590C290C291D2929003E8C007FF
:2001C400120116D007C292803674F05FF5A0C2A0C2A1D2A29003E8C007120116D007C2A2DA
:2001E400801D74F05FF5B0C2B0C2B1D2B29003E8C007120116D007C2B2800490FFFF229013
:200204002710C007120116D007E52BFE24FC5003020293EE2E90021D7380068020803A8026
:20022400548F06EEC454F0FE74F05EF580C280C281D2829003E8120116C28280568F06EE8C
:20024400C454F0FE74F05EF590C290C291D2929003E8120116C292803A8F06EEC454F0FE09
:2002640074F05EF5A0C2A0C2A1D2A29003E8120116C2A2801EEFC454F0FF74F05FF5B0C224
:20028400B0C2B1D2B29003E8120116C2B2800490FFFF2290271012011690000022AF82E5AF
:2002A4002BFE24FC500302031FEE2E9002B3738006801D8034804B74F05FF580D280C28137
:2002C400D2829003E8C007120116D007C282804F74F05FF590D290C291D2929003E8C007CE
:2002E400120116D007C292803674F05FF5A0D2A0C2A1D2A29003E8C007120116D007C2A2A9
:20030400801D74F05FF5B0D2B0C2B1D2B29003E8C007120116D007C2B2800490FFFF2290E1
:200324002710C007120116D007E52BFE24FC50030203B3EE2E90033D7380068020803A80C3
:20034400548F06EEC454F0FE74F05EF580D280C281D2829003E8120116C28280568F06EE5B
:20036400C454F0FE74F05EF590D290C291D2929003E8120116C292803A8F06EEC454F0FED8
:2003840074F05EF5A0D2A0C2A1D2A29003E8120116C2A2801EEFC454F0FF74F05FF5B0D2E3
:2003A400B0C2B1D2B29003E8120116C2B2800490FFFF2290271012011690000022E582FF3E
:2003C4007008758280120181803DBF0117AE29BE01028008BE02028003BE03087582C0120B
:2003E40001818023BF0212AE29BE02028003BE0308758290120181800EBF030B7403B52951
:20040400067582D0120181AD2CAE2DAF2E8D828E838FF0120ABCFC60188C820DBD00010E14
:12042400C007C006C0051202A1D005D006D00780DC22BF
:20043600AC82AD83AEF0FF438920759850D28E8C828D838EF0EF02044FAC82AD83AEF0FF27
:20045600C3EC9460ED9409EE9400EF9400403EE49C74C29D74019EE49F40328C428D438E4F
:20047600448F45900180E4F5F0120A4E85824285834385F044F54590C00075F0A8E4120927
:20049600CEAC82AD83AEF0C3E49CFF80027F5D8F8D2210980280FB8599822285829910996E
:2004B6000280FB22AD82AE83AFF08D828E838FF0120ABCFC60188C820DBD00010EC007C02F
:2004D60006C0051204B1D005D006D00780DC22AD82AE83AFF07C00C007C006C005C00412D1
:2004F60004A8AB82C0031204B1D003D004D005D006D007BB0D028003BB0A14EC2DF8E43E01
:20051600F98F02888289838AF0E4120A33801EBB0806EC60031C80BFEC2DF8E43EF98F02AA
:20053600888289838AF0EB120A330C80AA8C82228582347402B5344BE533700122E53314B9
:20055600FE8EF005F07C017D008006EC2CFCED33FDD5F0F7ED3395E0FBFAE52F5204E5309E
:200576005205E5315203E5325202EC4D4B4AB40100B3E4332430F582C0061204B1D0068E2F
:200596003380B5E52F453045314532701BFEC3EE9533400122BE0A00400122758230C006EA
:2005B6001204B1D0060E80E674FFB5330474018001E4F540C3740A9533E433FD753500C31C
:2005D600E53595335066E52F453045314532604AC005E5352436F9853442754300754400AF
:2005F600754500852F828530838531F0E532C005C0011209CEAA82AB83ACF0FFD001D005F6
:200616008A058534F0EDA4FDE52FFEC39DF78A2F8B308C318F32D005800EE540700EED7040
:200636000BE5352436F8760005358093AF35EF60308F06EE142436F9E724F6500DEE142499
:2006560036F9870574372DFD800BEE142436F9870674302EFD8D82C0071204B1D0071F80A5
:20067600CD22C041E581F5412405F581E54124FBFFE5412405F8A607E54124FBF8A94109D1
:2006960009E6F70809E6F70809E6F7A841080886820886830886F0120ABCFB70030209C8D9
:2006B600BB250280030209B6A841080806B600020806A841080886820886830886F0120A8D
:2006D600BCFBBB30004046EB24C64041A841087600A84108088602088607088606BB30008A
:2006F6004032EB24C6402DA84108E675F00AA4FD8B04EC24D02DFDA84108A6050ABA00014F
:200716000F8A828F838EF0120ABCFB80D0A8410876FF800CA8410808A60208A60708A606F9
:20073600BB25030209AEBB4203020947BB43028049BB44030207F4BB46030209BBBB530312
:20075600020987BB5503020881BB58030208DFBB620302090DBB63028020BB64028034BBCC
:2007760066030209BBBB7303020987BB7503020851BB78030208AF0209BBE5412405F8E601
:2007960014F9E5412405F8A60187078F821204B10209BBE5412405F8E624FEFFE54124057F
:2007B600F8A6078F01870609870719EF30E715C3E49EFEE49FFF75822DC007C0061204B159
:2007D600D006D0078E2FEFF5303395E0F531F532A84108863375820A1205460209BBE5419C
:2007F6002405F8E624FCFFE5412405F8A6078F018704098705098706098707191919EF3082
:20081600E723C3E49CFCE49DFDE49EFEE49FFF75822DC007C006C005C0041204B1D004D054
:2008360005D006D0078C2F8D308E318F32A84108863375820A1205460209BBE5412405F8E3
:20085600E624FEFFE5412405F8A6078F018706098707198E2F8F30753100753200A8410800
:20087600863375820A1205460209BBE5412405F8E624FCFFE5412405F8A6078F01872F09F6
:200896008730098731098732191919A84108863375820A1205460209BBE5412405F8E6249E
:2008B600FEFFE5412405F8A6078F018706098707198E2F8F30753100753200A841088633F1
:2008D6007582101205460209BBE5412405F8E624FCFFE5412405F8A6078F01872F09873092
:2008F600098731098732191919A8410886337582101205460209BBE5412405F8E624FEFFF2
:20091600E5412405F8A6078F01870609870719A84108B6FF05A8410876108E2F8F307531BC
:2009360000753200A8410886337582021205468074E5412405F8E624FCFFE5412405F8A6CD
:20095600078F018704098705098706098707191919A84108B6FF05A8410876208C2F8D30A8
:200976008E318F32A8410886337582021205468034E5412405F8E624FDFFE5412405F8A6F3
:20099600078F01870509870609870719198D828E838FF01204BA800D7582251204B180055B
:1809B6008B821204B1A841080806B6000208060206A1854181D041226D
:2009CE00FB7A20E4FCFDFEFFE5822582F582E58333F583E5F033F5F0EB33FB4017DAE98062
:2009EE0042E5822582F582E58333F583E5F033F5F0EB33FBEC33FCED33FDEE33FEEF33FF91
:200A0E00EC9542ED9543EE9544EF95454013EC9542FCED9543FDEE9544FEEF9545FF43828A
:050A2E0001DABEEB221D
:06003500E478FFF6D8FD9F
:200013007900E94400601B7A00900AE6780175A000E493F2A308B8000205A0D9F4DAF275A3
:02003300A0FF2C
:1B0A330020F71130F6138883A88220F509F6A8837583002280FEF280F5F022C2
:200A4E00AAF0FBE5828542F0A4FCADF0E5838542F0A42DFDE435F0FEE5828543F0A42DFDB7
:200A6E00E5F03EFEE433FFEA8542F0A42EFEE5F03FFFE5838543F0A42EFEE5F03FFFE58253
:200A8E008544F0A42EFEE5F03FFFEB8542F0A42FFFEA8543F0A42FFFE5838544F0A42FFFD1
:0E0AAE00E5828545F0A42F8EF08D838C822288
:20003B007800E84400600A790175A000E4F309D8FC7800E84400600C7900900001E4F0A3C3
:04005B00D8FCD9FAFA
:0D000600758145120AD8E5826003020003EF
:1C0ABC0020F71430F6148883A88220F507E6A88375830022E280F7E49322E02249
:040AD8007582002201
:00000001FF
