:03000000020006F5
:03005F0002000399
:0300030002006296
:200062001200B212010D7582801201251200B89003E81200EF1207C9850882850983120B86
:20008200281207D4758201120125750A57750B0C750C807582001201A785080D85090E755A
:2000A2000F0A7582011202059001F41200EF80C5C28075A00022750A63750B0C750C8075EC
:1D00C20082001201A7750A74750B0C750C807582010201A7208003D28022C2802248
:200C570044697374616E6365203A20004661697A2041696E757220526F666971004A7572DD
:070C77006E616C204954007E
:2000DF00AE82AF83EE4F60071EBEFF011F80F522AE82AF83EE4F6015900070C007C00612B6
:0E00FF0000DFD006D0071EBEFF011F80E722E3
:20010D0075820212012575822812012575820E120125758201020125AF8274F05FF5A0C2A2
:20012D00A0C2A1D2A29003E8C0071200DFC2A29027101200DFD007EFC454F0FF74F05FF567
:20014D00A0C2A0C2A1D2A29003E81200DFC2A29027101200DF90000022AF8274F05FF5A0F6
:20016D00D2A0C2A1D2A29003E8C0071200DFC2A29027101200DFD007EFC454F0FF74F05F4A
:20018D00F5A0D2A0C2A1D2A29003E81200DFC2A29027101200DF90000022E582FF24FC4074
:2001AD002CEF2F9001B4738006800C8012801875828012012580167582C0120125800E75BD
:2001CD00829012012580067582D0120125AD0AAE0BAF0C8D828E838FF0120B34FC60188C28
:2001ED00820DBD00010EC007C006C005120166D005D006D00780DC22AF827543107544001A
:20020D00754540850F46754700850D82850E83C00712085FD007750A10750B00750C408FA1
:04022D00820201A7A1
:20023100AC82AD83AEF0FF438920759850D28E8C828D838EF0EF02024AAC82AD83AEF0FF35
:20025100C3EC9460ED9409EE9400EF9400403EE49C74C29D74019EE49F40328C4D8D4E8E40
:200271004F8F50900180E4F5F0120A9185824D85834E85F04FF55090C00075F0A8E41209A9
:20029100B7AC82AD83AEF0C3E49CFF80027F5D8F8D2210980280FB8599822285829910998C
:2002B1000280FB22AD82AE83AFF08D828E838FF0120B34FC60188C820DBD00010EC007C0BD
:2002D10006C0051202ACD005D006D00780DC22AD82AE83AFF07C00C007C006C005C00412DF
:2002F10002A3AB82C0031202ACD003D004D005D006D007BB0D028003BB0A14EC2DF8E43E16
:20031100F98F02888289838AF0E4120A1C801EBB0806EC60031C80BFEC2DF8E43EF98F02C8
:20033100888289838AF0EB120A1C0C80AA8C82228582367402B5364BE535700122E53514CF
:20035100FE8EF005F07C017D008006EC2CFCED33FDD5F0F7ED3395E0FBFAE5315204E532A1
:200371005205E5335203E5345202EC4D4B4AB40100B3E4332430F582C0061202ACD0068E39
:200391003580B5E531453245334534701BFEC3EE9535400122BE0A00400122758230C006E5
:2003B1001202ACD0060E80E674FFB5350474018001E4F542C3740A9535E433FD753700C322
:2003D100E53795355066E531453245334534604AC005E5372438F985364D754E00754F0083
:2003F1007550008531828532838533F0E534C005C0011209B7AA82AB83ACF0FFD001D00501
:200411008A058536F0EDA4FDE531FEC39DF78A318B328C338F34D005800EE542700EED7039
:200431000BE5372438F8760005378093AF37EF60308F06EE142438F9E724F6500DEE142496
:2004510038F9870574372DFD800BEE142438F9870674302EFD8D82C0071202ACD0071F80AF
:20047100CD22C04CE581F54C2405F581E54C24FBFFE54C2405F8A607E54C24FBF8A94C0996
:2004910009E6F70809E6F70809E6F7A84C080886820886830886F0120B34FB70030207C363
:2004B100BB250280030207B1A84C080806B600020806A84C080886820886830886F0120B84
:2004D10034FBBB30004046EB24C64041A84C087600A84C08088602088607088606BB300003
:2004F1004032EB24C6402DA84C08E675F00AA4FD8B04EC24D02DFDA84C08A6050ABA000140
:200511000F8A828F838EF0120B34FB80D0A84C0876FF800CA84C0808A60208A60708A60671
:20053100BB25030207A9BB4203020742BB43028049BB44030205EFBB46030207B6BB530335
:20055100020782BB550302067CBB58030206DABB6203020708BB63028020BB64028034BBEF
:2005710066030207B6BB7303020782BB750302064CBB78030206AA0207B6E54C2405F8E620
:2005910014F9E54C2405F8A60187078F821202AC0207B6E54C2405F8E624FEFFE54C240573
:2005B100F8A6078F01870609870719EF30E715C3E49EFEE49FFF75822DC007C0061202AC67
:2005D100D006D0078E31EFF5323395E0F533F534A84C08863575820A1203410207B6E54C91
:2005F1002405F8E624FCFFE54C2405F8A6078F018704098705098706098707191919EF307E
:20061100E723C3E49CFCE49DFDE49EFEE49FFF75822DC007C006C005C0041202ACD004D062
:2006310005D006D0078C318D328E338F34A84C08863575820A1203410207B6E54C2405F8D8
:20065100E624FEFFE54C2405F8A6078F018706098707198E318F32753300753400A84C08E9
:20067100863575820A1203410207B6E54C2405F8E624FCFFE54C2405F8A6078F01873109F1
:200691008732098733098734191919A84C08863575820A1203410207B6E54C2405F8E62495
:2006B100FEFFE54C2405F8A6078F018706098707198E318F32753300753400A84C088635D8
:2006D1007582101203410207B6E54C2405F8E624FCFFE54C2405F8A6078F0187310987328D
:2006F100098733098734191919A84C0886357582101203410207B6E54C2405F8E624FEFFEB
:20071100E54C2405F8A6078F01870609870719A84C08B6FF05A84C0876108E318F3275339C
:2007310000753400A84C0886357582021203418074E54C2405F8E624FCFFE54C2405F8A6B6
:20075100078F018704098705098706098707191919A84C08B6FF05A84C0876208C318D3295
:200771008E338F34A84C0886357582021203418034E54C2405F8E624FDFFE54C2405F8A6DA
:20079100078F01870509870609870719198D828E838FF01202B5800D7582251202AC800570
:1807B1008B821202ACA84C080806B60002080602049C854C81D04C2261
:1D07C900D2B690000A1200DFC2B62230B2FDA28C30B203308DFAA28CE58CE58A228D
:2007E600AD82AE83AFF0AB4FAC50A94DAA4EC3E99BEA64808CF063F08095F05055EB2DF575
:2008060054EC3EF5558F561BBBFF011CE92DF551EA3EF5528F5309B900010A85518285528A
:20082600838553F0120B34F5578554828555838556F0120B34F88551828552838553F01272
:200846000A1C8554828555838556F0E557120A1C809C8D828E838FF022858248858349C335
:20086600E5469402E5476480948040107420954674808547F063F08095F0500A854382859D
:2008860044838545F022854882854983120A37AC82AD837A007B00EC4D70030209368546B1
:2008A6004D85474E8C828D83C005C004C003C002120B5085824A85834BD002D003D004D045
:2008C60005C3E54A940AE54B6480948040248A068B070ABA00010BEE2543FEEF3544F9AF9B
:2008E60045A84A743728F88E8289838FF0120A1C80228A068B070ABA00010BEE2543FEEF46
:200906003544F9AF45A84A743028F88E8289838FF0120A1C85464D85474E8C828D83C003CF
:20092600C002120B99AC82AD83D002D00302089DEA4B701E8A068B070ABA00010BEE254384
:20094600FEEF3544FFAD458E828F838DF07430120A1CE54930E72B740AB54606E4B54702EE
:200966008002801E8A068B070ABA00010BEE2543FEEF3544FFAD458E828F838DF0742D1260
:200986000A1CEA2543FDEB3544FEAF458D828E838FF0E4120A1CEA24FFF54FEB34FFF55017
:1109A600E4F54DF54E8543828544838545F00207E698
:2009B700FB7A20E4FCFDFEFFE5822582F582E58333F583E5F033F5F0EB33FB4017DAE98079
:2009D70042E5822582F582E58333F583E5F033F5F0EB33FBEC33FCED33FDEE33FEEF33FFA8
:2009F700EC954DED954EEE954FEF95504013EC954DFCED954EFDEE954FFEEF9550FF43824A
:050A170001DABEEB2234
:06003500E478FFF6D8FD9F
:200013007900E94400601B7A00900C7E780175A000E493F2A308B8000205A0D9F4DAF27509
:02003300A0FF2C
:1B0A1C0020F71130F6138883A88220F509F6A8837583002280FEF280F5F022D9
:0D0A3700E58330E7076382FF6383FFA3229E
:200A4400E54D454E60467A01E54D25E0F54DE54E334012F54EE582954DE583954E40030A57
:200A640080E6C3E54E13F54EE54D13F54DC3E582954DF5F0E583954E4005F58385F082C386
:0D0A8400E54E13F54EE54D13F54DDAE12278
:200A9100AAF0FBE582854DF0A4FCADF0E583854DF0A42DFDE435F0FEE582854EF0A42DFD53
:200AB100E5F03EFEE433FFEA854DF0A42EFEE5F03FFFE583854EF0A42EFEE5F03FFFE582FA
:200AD100854FF0A42EFEE5F03FFFEB854DF0A42FFFEA854EF0A42FFFE583854FF0A42FFF62
:0E0AF100E5828550F0A42F8EF08D838C82223A
:200AFF007A10E4FBFCE58225E0F582E58333F583EB33FBEC33FCEB954DF5F0EC954E400681
:090B1F00FCABF0438201DADD2297
:20003B007800E84400600A790175A000E4F309D8FC7800E84400600C7900900001E4F0A3C3
:04005B00D8FCD9FAFA
:0C0B2800E4AC83AB82FAF9748E020B8FF0
:0D000600758157120C04E5826003020003AF
:1C0B340020F71430F6148883A88220F507E6A88375830022E280F7E49322E022D0
:200B5000C2D5E58330E70DD2D5E4C39582F582E49583F583E54E30E70BE4C3954DF54DE40E
:160B7000954EF54E120A4430D50BE4C39582F582E49583F583220E
:130B8600FCABF0AA83A982749EC2D1F582120BD1020C084D
:200B9900C2D5E58330E70DD2D5E4C39582F582E49583F583E54E30E70DB2D5E4C3954DF56D
:180BB9004DE4954EF54E120AFF30D50BE4C39582F582E49583F58322D7
:200BD1007804EC7011E58224F8500AF582E4C9CACBFCD8EF22EC7820058220E713D5820123
:130BF10022C3E933F9EA33FAEB33FBEC33FCD8EA15822231
:040C040075820022D3
:200C0800B98003EA13B34010EA2401FAE43BFBE43CFC50047C800582BC000EBB000BBA0030
:200C280008E4F5F0F583F58222A2D1E582138CF092F78B838A8222E4F583F58275F080F4F0
:0F0C4800A2D11322E4F583F58275F0C0747F22E8
:00000001FF
