:03000000020006F5
:18005F00750880750900750AC0750B00750C90750D00750ED0750F00E5
:03008F0002000369
:0300030002009266
:2000920075104675116175126975137A75142075154175166975176E751875751972751AB7
:2000B20020751B52751C6F751D66751E69751F71752000C28075A000752F02753001758204
:2000D200011201441201597582801201817F00EF2410F9E7FE600C8E82C0071202A1D007F0
:2000F2000F80EC752C38752D04752E807582011203C1C2809001F4120126D2809001F4121A
:04011200012680EE54
:0A0438004A75726E616C2049540091
:20011600AE82AF83EE4F60071EBEFF011F80F522AE82AF83EE4F6015900070C007C006127E
:0E0136000116D006D0071EBEFF011F80E72273
:180077007521807522007523C07524007525907526007527D075280005
:20014400AF828F2985302A852F2B90000022E52F24FF920022758202120181AF2ABF010829
:200164007582281201818009EF700675823812018175820E120181758201020181AF82E5EC
:200184002BFE24FC50030201FFEE2E900193738006801D8034804B74F05FF580C280C281AB
:2001A400D2829003E8C007120116D007C282804F74F05FF590C290C291D2929003E8C007FF
:2001C400120116D007C292803674F05FF5A0C2A0C2A1D2A29003E8C007120116D007C2A2DA
:2001E400801D74F05FF5B0C2B0C2B1D2B29003E8C007120116D007C2B2800490FFFF229013
:200204002710C007120116D007E52BFE24FC5003020293EE2E90021D7380068020803A8026
:20022400548F06EEC454F0FE74F05EF580C280C281D2829003E8120116C28280568F06EE8C
:20024400C454F0FE74F05EF590C290C291D2929003E8120116C292803A8F06EEC454F0FE09
:2002640074F05EF5A0C2A0C2A1D2A29003E8120116C2A2801EEFC454F0FF74F05FF5B0C224
:20028400B0C2B1D2B29003E8120116C2B2800490FFFF2290271012011690000022AF82E5AF
:2002A4002BFE24FC500302031FEE2E9002B3738006801D8034804B74F05FF580D280C28137
:2002C400D2829003E8C007120116D007C282804F74F05FF590D290C291D2929003E8C007CE
:2002E400120116D007C292803674F05FF5A0D2A0C2A1D2A29003E8C007120116D007C2A2A9
:20030400801D74F05FF5B0D2B0C2B1D2B29003E8C007120116D007C2B2800490FFFF2290E1
:200324002710C007120116D007E52BFE24FC50030203B3EE2E90033D7380068020803A80C3
:20034400548F06EEC454F0FE74F05EF580D280C281D2829003E8120116C28280568F06EE5B
:20036400C454F0FE74F05EF590D290C291D2929003E8120116C292803A8F06EEC454F0FED8
:2003840074F05EF5A0D2A0C2A1D2A29003E8120116C2A2801EEFC454F0FF74F05FF5B0D2E3
:2003A400B0C2B1D2B29003E8120116C2B2800490FFFF2290271012011690000022E582FF3E
:2003C4007008758280120181801FBF01087582C01201818014BF02087582901201818009E3
:2003E400BF03067582D0120181AD2CAE2DAF2E8D828E838FF0120418FC60188C820DBD002C
:14040400010EC007C006C0051202A1D005D006D00780DC22CE
:06003500E478FFF6D8FD9F
:200013007900E94400601B7A00900442780175A000E493F2A308B8000205A0D9F4DAF2754D
:02003300A0FF2C
:20003B007800E84400600A790175A000E4F309D8FC7800E84400600C7900900001E4F0A3C3
:04005B00D8FCD9FAFA
:0D000600758130120434E5826003020003AE
:1C04180020F71430F6148883A88220F507E6A88375830022E280F7E49322E022F3
:0404340075820022AB
:00000001FF
